:020000040800F2
:1000000088090020A90D00083D0500083F050008EB
:1000100043050008470500084B05000800000000E4
:100020000000000000000000000000004F05000874
:10003000510500080000000053050008C10D00082C
:10004000C30D0008C30D0008C30D0008C30D000850
:10005000C30D0008C30D0008C30D0008C30D000840
:10006000C30D0008C30D0008C30D00082D0A0008C9
:10007000C30D0008C30D000855050008C30D000896
:10008000C30D0008C30D0008C30D0008C30D000810
:10009000590B0008C30D0008C30D0008C30D00086C
:1000A000C30D0008C30D0008C30D0008C30D0008F0
:1000B000C30D0008C30D0008C30D0008C30D0008E0
:1000C000C30D0008C30D0008C30D0008C30D0008D0
:1000D000C30D0008A7390008C30D0008C30D0008B0
:1000E000C30D0008C30D0008C30D000800F002F89E
:1000F00000F03AF80AA090E8000C82448344AAF188
:100100000107DA4501D100F02FF8AFF2090EBAE885
:100110000F0013F0010F18BFFB1A43F0010318473B
:10012000C03E0000E03E0000103A24BF78C878C10D
:10013000FAD8520724BF30C830C144BF04680C60ED
:10014000704700000023002400250026103A28BF35
:1001500078C1FBD8520728BF30C148BF0B60704739
:100160001FB51FBD10B510BD03F06DFC1146FFF7A4
:10017000F7FF00F009F803F08BFC03B4FFF7F2FF80
:1001800003BC03F007F8000008B500260027002490
:10019000002502F063FF02F0CBFF4FF4165003F08E
:1001A00008F800F0F9FA00F01BFB00F051FB00F03A
:1001B000D3FA40F27121042000F0E0FD0020042376
:1001C00008220721009000F045FC0122D2490020BE
:1001D00000F0A1FDD0480078D04908704FF4967027
:1001E00002F079FF0A21CE4800F06DFDCC48008A6C
:1001F00008287DD00820CA490882CA490868CA4927
:1002000003F0ACFD81464FF08B4103F0B1FC80461A
:1002100003F070FDC2490880C2494868C24903F032
:100220009DFD81464FF08B4103F0A2FC804603F018
:1002300061FDBB494880BB498868BB4903F08EFD1E
:1002400081464FF08B4103F093FC804603F052FD52
:10025000B3498880B349C868B34903F07FFD81463C
:100260004FF08B4103F084FC804603F043FDAC4922
:10027000C880AC490869AC4903F070FD81464FF075
:100280008B4103F075FC804603F034FDA4490881DE
:10029000A4494869A44903F061FD81464FF08B41B0
:1002A00003F066FC804603F025FD9D4948819D4989
:1002B00088699D4903F052FD81464FF08B4103F060
:1002C00057FC804603F016FD954988819549C86919
:1002D000954903F043FD81464FF08B4103F048FC04
:1002E000804603F007FD8E49C88109218C4800E053
:1002F00001E000F0ABFC08218C4800F0E4FC0AE1CE
:100300008A49088803F016FD8246864908688649AE
:1003100003F024FD83464FF08B4103F029FC814616
:10032000514603F0E7FD804603F0E4FC8049088075
:100330007E49488803F0FEFC82467A4948687A493B
:1003400003F00CFD83464FF08B4103F011FC814616
:10035000514603F0CFFD804603F0CCFC7449488041
:100360007249888803F0E6FC82466E4988686E49C7
:1003700003F0F4FC83464FF08B4103F0F9FB814618
:10038000514603F0B7FD804603F0B4FC684988800D
:100390006649C88803F0CEFC82466249C868624953
:1003A00003F0DCFC83464FF08B4103F0E1FB814618
:1003B000514603F09FFD804603F09CFC5C49C880D9
:1003C0005A49088903F0B6FC8246564908695649DD
:1003D00003F0C4FC83464FF08B4103F0C9FB814618
:1003E000514603F087FD804603F084FC50490881A4
:1003F0004E49488903F09EFC82464A4948694A4969
:1004000003F0ACFC83464FF08B4103F0B1FB814617
:10041000514603F06FFD804603F06CFC444948816F
:100420004249888903F086FC82463E4988693E49F4
:1004300003F094FC83464FF08B4103F099FB814617
:10044000514603F057FD804603F054FC384988813B
:100450003649C88903F06EFC82463249C869324980
:1004600003F07CFC83464FF08B4103F081FB814617
:10047000514603F03FFD804603F03CFC2C49C88107
:1004800000240FE02A4830F81400082804DD00207A
:10049000284921F8140003E00120264921F814001E
:1004A000601CC4B2082CEDDB002416E02248005D7D
:1004B0001F4931F8141088420DD0002700F0B8FB16
:1004C000002506E01A4810F815001B494855681C1D
:1004D000C5B2082DF6DB601CC4B2082CE6DBC82FC1
:1004E0000DDD002700F0A4FB002406E0104810F802
:1004F000140011490855601CC4B2082CF6DB781CA6
:10050000C7B2142E02D1002600F04AFC701CC6B2FD
:10051000052002F0E0FDF3E60200002019000020B3
:1005200000030020C00200200000A543E0020020DC
:10053000F0020020140300201A000020704700BFC2
:10054000FEE700BFFEE700BFFEE700BFFEE7704723
:100550007047704710B54FF4005001F03EFB38B1C2
:100560004FF4005001F02EFB0021024801F0FBFA8D
:1005700010BD0000440002400CB500200190009026
:100580006C48006840F480306A49086000BF6948E0
:10059000006800F4003000900198401C0190009821
:1005A00018B90198B0F5A06FF1D16248006800F465
:1005B000003010B10120009001E000200090009870
:1005C000012843D15C48006840F010005A49086097
:1005D0000846006820F0030008600846006840F004
:1005E0000200086053484068524948600846406825
:1005F00048600846406840F48060486008464068AB
:1006000020F47C1048600846406840F4E8104860D8
:100610000846006840F08070086000BF45480068E8
:1006200000F000700028F9D04248406820F0030034
:10063000404948600846406840F00200486000BFFA
:100640003C48406800F00C000828F9D10CBD10B5FA
:10065000FFF792FF10BD10B53648006840F001006A
:1006600034490860084640683449084031494860C8
:1006700008460068324908402E490860084600686C
:1006800020F4802008600846406820F4FE0048609E
:100690004FF41F008860FFF7DAFF4FF00060294930
:1006A000086010BD10B5002100200022214B5B68BE
:1006B00003F00C0121B1042906D0082928D107E054
:1006C000214B224C236027E01F4B204C236023E06A
:1006D000184B5B6803F47010164B5B6803F48032B0
:1006E000022303EB904022B9194B4343174C23607C
:1006F0000DE0104B5B6803F4003323B1144B43430C
:10070000124C236003E0104B4343104C236003E082
:100710000D4B0E4C236000BF00BF064B5B68C3F35C
:1007200003130C4CE15C094B1B68CB40074C236066
:1007300010BD000000100240002002400000FFF841
:10074000FFFFF6FE08ED00E000127A000400002032
:1007500000093D000800002008B50121052000F037
:10076000CDFE0121082000F0C9FE0121084800F05B
:10077000DAFCFF20ADF8000048208DF803000320CC
:100780008DF802006946034800F0FCFB08BD00003C
:10079000000230000008014000B58BB0274801F08E
:1007A00015F92748009027480190002002908020EA
:1007B0000390002004908020059000200690079070
:1007C00008904FF44050099000200A9069461B4859
:1007D00001F09EF90121194801F0C5F90BB000BDE7
:1007E00000B58BB01548503801F0F0F8164800906D
:1007F0001648019000200290F02003900020049001
:1008000080200590400006908000079020200890EE
:100810000002099000200A9069460848503801F00B
:1008200077F901210548503801F09DF90122022194
:100830000248503801F0A3F90BB000BD5800024047
:1008400004380140600000204C240140E0000020FA
:1008500000B587B00121084600F043FE01214FF4A6
:10086000017000F04BFEFF20ADF8040000208DF871
:10087000070001A9734800F085FB4FF4004000F029
:10088000A1FD714801F0CCF90020029001208DF803
:100890000C008DF80D004FF46020049000200590AE
:1008A00008208DF8180002A9674801F0E0F901203E
:1008B00001F09AFB072301220021634801F06FFA3F
:1008C000072302220121604801F069FA072303226D
:1008D00002215D4801F063FA0723042203215A48EC
:1008E00001F05DFA072305220421574801F057FA69
:1008F000072306220521544801F051FA07231A461E
:100900000621514801F04BFA0723082219464E48A8
:1009100001F045FA01214C4801F0D5F901214A487E
:1009200001F0DCF9484801F0F0F900BF464801F059
:10093000F1F90028FAD1444801F0F6F900BF424825
:1009400001F0F7F90028FAD101213F4801F0FBF945
:1009500007B000BD2DE9F04302460B460020844657
:100960000A26A3F10A081FFA88F7002523E00021D0
:1009700017E032F8119001F1010832F81880C145F2
:100980000BDD32F811C001F1010832F8188022F8AD
:10099000118001F1010822F818C001F1010808F0E6
:1009A000FF0105EB0109A3F10108C145E1DB05F1F8
:1009B000010808F0FF059D42D9DBF4B208E032F8E7
:1009C000148080441FFA88F004F1010808F0FF0445
:1009D000BC42F4DBA7EB060808F1010890FBF8F82D
:1009E0001FFA88F0BDE8F08370B590B0002519E0DB
:1009F000002409E0154800EB041030F8150001A9A7
:100A000021F81400601CC4B21E2CF3DB1E2101A8C7
:100A1000FFF7A0FF064603F08DF90D4941F82500C8
:100A2000681CC5B2082DE3DB10B070BD10B5022004
:100A300001F0D3F820B1FFF7D7FF022001F0E1F871
:100A400010BD00000008014000240140E00000202B
:100A5000C00200202DE9F0418AB004460D4616463A
:100A60001F46DDF840800121480600F054FD4FF498
:100A70000070ADF8240003208DF8260018208DF8B2
:100A8000270009A96D4800F07DFA4FF48070ADF899
:100A9000240048208DF8270003208DF8260009A99E
:100AA000664800F06FFA01214FF4EA1000F03BFBBA
:100AB000634801F0DDFA06A801F0FEFB00208DF886
:100AC0001E008DF81F008DF8200001208DF82100F8
:100AD00000208DF822008DF823008DF81A808DF803
:100AE0001B408DF81C608DF81D50ADF8187006A9DC
:100AF000534801F0D6FA00208DF812008DF813004B
:100B000001208DF814000020ADF80800ADF80A00AF
:100B1000ADF80C00ADF80E00ADF8100001208DF816
:100B2000150002A801F047FB01220221444801F010
:100B300041FE14208DF8040001208DF805000020EE
:100B40008DF8060001208DF8070001A800F051F98A
:100B500000200AB0BDE8F08100B585B06A460021EA
:100B6000374801F00CFD00987F280ED19DF80B004E
:100B700034490978884208D09DF80B003149087043
:100B80009DF80B10002000F0D4F805B000BDF0B5C2
:100B900085B007460D4600242A48007800900020C2
:100BA00001908DF808008DF809008DF80A5000BFFB
:100BB00005E0395D0DF10B000155601C84B2AC42BB
:100BC000F7DB69461E4801F0E5FB0646002401E01C
:100BD000601C84B231461A4801F074FC18B940F622
:100BE000FF708442F4DB40F6FF70844202DB012098
:100BF00005B0F0BD0020FBE730B585B0054600210B
:100C00000F4801F03FFD10B9002005B030BD6A4625
:100C100000210B4801F0B3FC002404E00DF10B00AF
:100C2000005D2855641C082CF8D39DF80A00ECE7F9
:100C300010B508210448FFF7AAFF10BD000C0140C1
:100C400000640040190000201A00002070B505461D
:100C50000C46002044490860012000F066FB01F0CA
:100C60001EFF342002F0B6F94048006801F05CFF36
:100C70001AE03D4A126835F812103B4A12683B4BA5
:100C80001B6803EB420002F052F837480068401C32
:100C90003549086008460068A04205D9002034495B
:100CA00008700846007870BD2F480068A042E0D95F
:100CB00001F001FF002000F038FB01202C490870F2
:100CC00008460078EFE702460020274B186018E03E
:100CD00025480068254B1B6833F81000224B1B6821
:100CE00022F8130020480068401C1F4B186018466B
:100CF0000068884205D900201D4B187018460078FE
:100D00007047194800688842E2D30120184B1870D8
:100D100018460078F4E710B503460020154C23442C
:100D200004E033F8014B21F81040401C9042F8DBFE
:100D300010BD70B504460D4601F0B7FE342002F038
:100D400049F90C4801F0F0FE0B490870084600789C
:100D5000042806D107496018294601F0E8FF064932
:100D6000087001F0AFFE70BD2400002020000020BC
:100D70001C000020000001082800002070B5054676
:100D80000C4645F2555002F049F9284602F049F95F
:100D9000204602F049F902F04AF902F04DF970BD1F
:100DA00010B502F044F910BD0948804709480047D2
:100DB000FEE7FEE7FEE7FEE7FEE7FEE7FEE7FEE70B
:100DC000FEE7FEE704480549054A064B7047000068
:100DD00057060008ED00000888030020880900205D
:100DE000880500208805002031490143314A1160FF
:100DF000704770B5002100230F22C47804B32D4C36
:100E0000246804F4E064C4F5E064210AC1F1040339
:100E1000CA40447804FA03F184781440214309015C
:100E2000254C0678A155047804F01F050124AC4038
:100E300005786D11AD0005F1E025C5F8004109E028
:100E4000047804F01F050124AC401C4D067876118F
:100E500045F8264070BD1A4A0A400243154B1B1F35
:100E60001A60704739B1134A121D12680243114BC0
:100E70001B1D1A6006E00F4A121D126882430D4BBB
:100E80001B1D1A607047042808D14FF0E021096942
:100E900041F004014FF0E022116107E04FF0E02142
:100EA000096921F004014FF0E02211617047000050
:100EB0000000FA050CED00E000E400E080E100E055
:100EC00080FFFF1F10B50446CC48844208D10121A1
:100ED000042000F02DFB0021042000F029FB46E057
:100EE000C748844208D10121082000F021FB0021DD
:100EF000082000F01DFB3AE0C248844208D10121DD
:100F0000102000F015FB0021102000F011FB2EE056
:100F1000BD48844208D10121202000F009FB0021B6
:100F2000202000F005FB22E0B848844208D10121CE
:100F3000402000F0FDFA0021402000F0F9FA16E010
:100F4000B348844208D10121802000F0F1FA002149
:100F5000802000F0EDFA0AE0AE48844207D101217A
:100F6000801500F0E5FA0021A01500F0E1FA10BDAF
:100F700010B50121084600F0DBFA0021012000F045
:100F8000D7FA10BD2DE9F0410246002500260020C9
:100F900000230024002791F803C00CF00F0591F8FE
:100FA00003C00CF0100CBCF1000F03D091F802C08C
:100FB0004CEA050591F800C0BCF1000F31D014686F
:100FC00000202BE04FF0010C0CFA00F3B1F800C048
:100FD0000CEA03069E4220D183004FF00F0C0CFA5E
:100FE00003F7BC4305FA03FC4CEA040491F803C080
:100FF000BCF1280F06D14FF0010C0CFA00FCC2F82E
:1010000014C00AE091F803C0BCF1480F05D14FF0BD
:10101000010C0CFA00FCC2F810C0401C0828D1D307
:101020001460B1F800C0BCF1FF0F34DD546800203B
:101030002EE000F1080C4FF0010808FA0CF3B1F8AB
:1010400000C00CEA03069E4221D183004FF00F0C32
:101050000CFA03F7BC4305FA03FC4CEA040491F8CC
:1010600003C0BCF1280F05D100F1080C08FA0CF8F8
:10107000C2F8148091F803C0BCF1480F07D100F109
:10108000080C4FF0010808FA0CF8C2F81080401C58
:101090000828CED35460BDE8F0814FF6FF7101807F
:1010A000022181700421C1707047024600209368BC
:1010B0000B400BB1012000E000207047014688681A
:1010C00080B2704702460020D3680B400BB101206C
:1010D00000E0002070470146C86880B27047016197
:1010E0007047416170470AB1016100E0416170479A
:1010F000C16070474FF480320A438261816182612E
:1011000082698269704702460020434B18684FF697
:101110008073184040EA021008433F4B1860704744
:101120003E49C8617047F0B50A46002300240021FB
:10113000002500F00046B6F1004F02D1364EF169AD
:1011400001E0354E7168C0F3034583B200F44016E8
:10115000B6F5401F08D121F070612F4E766826F059
:1011600070662D4F7E6012E000F48016B6F5801F89
:1011700006D1032606FA05F4A14341F0706106E0AA
:10118000460D360103FA06F6B14341F0706122B113
:10119000460D360103FA06F6314300F00046B6F17B
:1011A000004F02D11C4EF16101E01B4E7160F0BD99
:1011B00030B500228B071C0F0F2303FA04F2164BE5
:1011C00008338C1053F824309343134C08348D109B
:1011D00044F8253023468C1053F824308C07240F14
:1011E00000FA04F423430C4C08348D1044F82530E5
:1011F00030BD0A49DC31086070470000000801403A
:10120000000C014000100140001401400018014092
:10121000001C01400020014000000140000020426D
:10122000DF48006840F00100DD490860084640687A
:10123000DC490840DA49486008460068DA49084055
:10124000D74908600846006820F4802008600846F6
:10125000406820F4FE0048604FF41F00886070472B
:10126000CF49096821F48031CD4A116011460968DF
:1012700021F480211160B0F5803F03D0B0F5802FBC
:101280000ED106E0C649096841F48031C44A1160B4
:1012900007E0C349096841F4A021C14A116000E098
:1012A00000BF00BF704710B5014600220023002098
:1012B0004A11012A02D1BA4C236806E0022A02D15F
:1012C000B74C236A01E0B64C636A01F01F020124A7
:1012D00094401C400CB1012000E0002010BD38B546
:1012E000002000900024002500BF3120FFF7DBFF25
:1012F00005460098401C00900098B0F5A06F01D002
:10130000002DF2D03120FFF7CEFF08B1012400E01C
:101310000024204638BD01460020A14A106820F074
:10132000F80040EAC10010607047A04908607047AB
:10133000024600209A4B586820F47C1042EA0103D0
:101340001843974B586070479849086670470146A4
:101350000020934A506820F0030008435060704713
:101360008F48406800F00C007047014600208C4A0E
:10137000506820F0F000084350607047014600209C
:10138000874A506820F4E060084350607047014687
:101390000020834A506820F4605040EAC100506049
:1013A000704729B17E4A527A02437D4B5A7204E05B
:1013B0007B4A527A82437A4B5A7270477B49D831C2
:1013C0000860704701460020754A506820F440408C
:1013D0000843506070470021714A20321170704AF2
:1013E00082F82010012802D004280AD104E001214B
:1013F0006B4A2032117005E00521694A20321170D4
:1014000000E000BF00BF7047694908607047644949
:10141000096A0143624A11627047654944390860AC
:10142000704730B500210022002400235C4D6D6818
:1014300005F00C0121B1042905D0082923D105E0CC
:101440005C4D056022E05B4D05601FE0544D6D680A
:1014500005F47012524D6D6805F48034022505EBD9
:1014600092421CB9544D554305600BE04C4D6D68DC
:1014700005F400351DB1504D5543056002E04D4D5A
:101480005543056002E04B4D056000BF00BF444D71
:101490006D6805F0F0010909484D6B5C0568DD4099
:1014A00045603F4D6D6805F4E061090A434D6B5C92
:1014B0004568DD4085603A4D6D6805F46051C90AA4
:1014C0003E4D6B5C4568DD40C560354D6D6805F48B
:1014D0004041890B3A4D6B5CC568B5FBF3F505617E
:1014E00030BD29B12E4A526902432D4B5A6104E0A6
:1014F0002B4A526982432A4B5A61704729B1284AC4
:1015000092690243264B9A6104E0254A926982431C
:10151000234B9A61704729B1214AD2690243204B7B
:10152000DA6104E01E4AD26982431D4BDA617047DA
:1015300029B11B4AD2680243194BDA6004E0184A09
:10154000D2688243164BDA60704729B1144A126997
:101550000243134B1A6104E0114A12698243104B93
:101560001A61704712494039086070470F49C864D2
:1015700070470B49C87170470948406A40F0807055
:1015800007494862704701460020054A92680A40B0
:101590000AB1012000E000207047014988727047BD
:1015A000001002400000FFF8FFFFF6FE000042427C
:1015B0008004424200127A0000093D002900002008
:1015C0003900002010B50446FB48844209D10121AE
:1015D0008803FFF7ADFF00214FF48040FFF7A8FF1D
:1015E00032E0F648844209D101214804FFF7ADFFFB
:1015F00000214FF40030FFF7A8FF25E0F0488442B7
:1016000009D101218804FFF7A0FF00214FF48020B9
:10161000FFF79BFF18E0EB48844209D10121C80481
:10162000FFF793FF00214FF40020FFF78EFF0BE040
:10163000E548844208D101210805FFF786FF002113
:101640004FF48010FFF781FF10BD2DE9F04786B001
:1016500005460E460024A24600BFA1460027B089D9
:1016600000B100BF2F462C8A4CF6FF700440F08872
:1016700004432C82AC894EF6F3100440B0883189C3
:101680000843718908430443AC81AC8A4FF6FF409C
:101690000440B0890443AC8201A8FFF7C2FEC648EB
:1016A000874202D1DDF810A001E0DDF80CA0A88986
:1016B00000F4004040B10AEBCA0000EB0A103168A8
:1016C0004900B0FBF1F807E00AEBCA0000EB0A1092
:1016D00031688900B0FBF1F86420B8FBF0F0040138
:1016E0002009642101FB1089A88900F4004040B161
:1016F000322000EBC900B0FBF1F000F0070004431A
:1017000008E0322000EB09106421B0FBF1F000F09A
:101710000F0004432C8106B0BDE8F0874FF416514A
:10172000016000218180C18001810C214181002163
:101730008181704710B502460020108A4FF2FF03E6
:1017400018400B884C8823438C882343CC88234340
:101750001843108210BD0021018041808180C1802A
:10176000704721B1828942F40052828104E082896B
:101770004DF6FF731A4082817047F0B5034600248E
:1017800000260025002040F66A17B94200D100BFAC
:101790001846C1F3421401F01F06012707FA06F5A7
:1017A000012C01D10C3004E0022C01D1103000E0FA
:1017B00014301AB107682F43076002E00768AF438F
:1017C0000760F0BD1AB1838A0B43838202E0838AEB
:1017D0008B4383827047028A4FF6F0731A4002826D
:1017E000028A0A430282704782894FF2FF731A40CD
:1017F000828182890A438281704721B1828942F0C5
:101800000202828104E082894FF6FD731A408281D0
:101810007047028A4FF6DF731A400282028A0A4337
:101820000282704721B1028A42F48042028204E0BF
:10183000028A4BF6FF731A4002827047C1F3080216
:101840008280704701468888C0F30800704781890C
:1018500041F0010181817047028BD2B20283028B79
:1018600042EA012202837047028B02F47F42028324
:10187000028B0A430283704721B1828A42F0200220
:10188000828204E0828A4FF6DF731A4082827047B8
:1018900021B1828A42F01002828204E0828A4FF6ED
:1018A000EF731A408282704721B1828A42F00802A7
:1018B000828204E0828A4FF6F7731A408282704770
:1018C00021B1828942F40042828103E08289C2F31D
:1018D0000E028281704721B1828A42F400628282C4
:1018E00004E0828A4FF2FF731A4082827047828A34
:1018F0004FF6FB731A408282828A0A4382827047C3
:1019000021B1828A42F00202828204E0828A4FF68A
:10191000FD731A408282704702460020B1F5007FB5
:1019200000D100BF13880B400BB1012000E0002064
:10193000704701F40072B2F5007F00D100BFCA43C6
:101940000280704770B50246002400230025002065
:1019500040F66A16B14200D100BFC1F3421501F052
:101960001F03012606FA03F3012D02D196893340A5
:1019700006E0022D02D1168A334001E0968A3340F8
:101980000C12012606FA04F41688344013B10CB187
:10199000012000E0002070BD10B50022002340F6B9
:1019A0006A14A14200D100BF0A1201249440A3B2DC
:1019B000DC43048010BD00000038014000440040BA
:1019C00000480040004C00400050004001684FF6C5
:1019D000FE72114001600021016041608160C160C0
:1019E0008D49884208D18C490839496841F00F0176
:1019F000894A083A51608AE087491431884208D1FF
:101A000085490839496841F0F001834A083A516034
:101A10007DE081492831884208D17F4908394968E9
:101A200041F470617C4A083A516070E07A493C3177
:101A3000884208D178490839496841F47041764AAA
:101A4000083A516063E074495031884208D17249C4
:101A50000839496841F470216F4A083A516056E0EC
:101A60006D496431884208D16B490839496841F4AD
:101A70007001694A083A516049E067497831884203
:101A800008D165490839496841F07061624A083AED
:101A900051603CE06149884206D1011F096841F06C
:101AA0000F01021F116032E05C491431884208D1F5
:101AB0005A49091F096841F0F001584A121F116084
:101AC00025E056492831884208D15449091F096840
:101AD00041F47061514A121F116018E04F493C31C6
:101AE000884208D14D49091F096841F470414B4AA9
:101AF000121F11600BE049495031884207D1474914
:101B0000091F096841F47021444A121F116070478F
:101B100010B50022026847F6F0739A430C6A8B688E
:101B200023430C6923434C6923438C692343CC69C9
:101B300023434C6A23438C6A23431A430260CB68D5
:101B400043600B6883604B68C36010BD0021016077
:101B500041608160C160016141618161C161016277
:101B600041628162704721B1026842F00102026065
:101B700004E002684FF6FE731A40026070471AB123
:101B800003680B43036002E003688B430360704704
:101B9000416070470146486880B2704701460020A6
:101BA000002201F080531BB11C4B083B1A6802E075
:101BB000194B083B1A6802EA01030BB1012000E04F
:101BC0000020704700F0805119B11449091F0860C6
:101BD00002E01149083948607047014600200022A0
:101BE00001F080531BB10D4B083B1A6802E00A4B11
:101BF000083B1A6802EA01030BB1012000E0002053
:101C0000704700F0805119B10449091F086002E0D3
:101C10000149083948607047080002400804024042
:101C200010B50446FA48844208D101214015FFF757
:101C30007FFC00216015FFF77BFC17E0F54884422C
:101C400008D101210015FFF773FC00212015FFF7D3
:101C50006FFC0BE0F048844208D10121C803FFF774
:101C600067FC00214FF40040FFF762FC10BD30B567
:101C70000246002000235068E84C20400D790C6893
:101C800044EA0524204350609068E54C2040D1E9A7
:101C900002542C434D7944EA450420439060D06AB5
:101CA00020F470000C7C641EE4B2234340EA03502D
:101CB000D06230BD00210160017141718160C1605D
:101CC00001210174704721B1826842F001028260F3
:101CD00003E0826822F001028260704721B18268CD
:101CE00042F48072826003E0826822F48072826033
:101CF000704710B50023CBB21AB144681C4344604E
:101D000002E044689C43446010BD816841F00801D2
:101D100081607047014600208A6802F008020AB11B
:101D2000012000E000207047816841F004018160DB
:101D30007047014600208A6802F004020AB10120BF
:101D400000E00020704721B1826842F4A002826066
:101D500003E0826822F4A0028260704701460020FE
:101D60008A6802F480020AB1012000E00020704776
:101D700010B50A4600210023416821F46041531E3A
:101D800041EA4331416010BD21B1426842F4006232
:101D9000426003E0426822F4006242607047F0B59E
:101DA00004460D4600200021092D11DDE068A5F153
:101DB0000A0606EB4607072606FA07F18843A5F14F
:101DC0000A0606EB460603FA06F10843E0600CE05B
:101DD000206905EB4507072606FA07F1884305EB5E
:101DE000450603FA06F108432061072A0FDA606B03
:101DF000561E06EB86071F2606FA07F18843561E75
:101E000006EB860605FA06F10843606322E00D2A18
:101E10000FDA206BD61F06EB86071F2606FA07F19E
:101E20008843D61F06EB860605FA06F108432063B1
:101E300010E0E06AA2F10D0606EB86071F2606FAFF
:101E400007F18843A2F10D0606EB860605FA06F1B6
:101E50000843E062F0BD21B1826842F480128260E2
:101E600003E0826822F48012826070470146C86CE9
:101E700080B2704766484C300068704721B14268B4
:101E800042F48062426003E0426822F48062426071
:101E9000704721B1426842F48052426003E04268D8
:101EA00022F48052426070470A460021816821F482
:101EB000E04111438160704721B1826842F40042E1
:101EC000826003E0826822F400428260704721B1A0
:101ED000826842F40212826003E0826822F40212F5
:101EE00082607047014600208A6802F400120AB13D
:101EF000012000E000207047F0B5044615460020A0
:101F000000220026092911DDE068A1F10A0707EB8C
:101F1000470C072707FA0CF29043A1F10A0707EBD9
:101F2000470703FA07F21043E0600CE0206901EB79
:101F3000410C072707FA0CF2904301EB410703FA23
:101F400007F210432061A06BC0F30156EF1C06F1AD
:101F5000010CA7EB0C0707EB870C1F2707FA0CF205
:101F60009043EF1C06F1010CA7EB0C0707EB87076A
:101F700001FA07F21043A063F0BD10B50A46002134
:101F80000023816B21F44011531E41EA0351816308
:101F900010BD08B5002300930090009B0B440093F4
:101FA000009B1A6008BD08B5024600200090009210
:101FB00001F12800009B184400900098006880B24E
:101FC00008BD0A4600214168164B19401143416083
:101FD00070474162826270470A460021416821F0E1
:101FE0001F0111434160704740B109490831096838
:101FF00041F40001064A0832116007E00449083143
:10200000096821F40001024A08321160704700009B
:102010000024014000280140003C0140FFFEF0FF89
:10202000FDF7F1FFFFFD3FFF0246002013680B4064
:102030000BB1012000E000207047CA4302607047E6
:1020400070B502460020002300240B125568CEB262
:1020500005EA060415681D4015B10CB1012000E029
:10206000002070BD00220A12D343036070470000B5
:1020700010B50446FE48844209D101214806FFF705
:1020800064FA00214FF00070FFF75FFA08E00121C9
:102090008806FFF75AFA00214FF08060FFF755FAE3
:1020A00010BD30B5024600200023146824F002045D
:1020B0001460146844F00104146000E05B1C546870
:1020C00004F001041CB94FF6FF74A342F6D1546822
:1020D00004F001040CB900206CE08C79012C04D1CF
:1020E000146844F08004146003E0146824F0800451
:1020F0001460CC79012C04D1146844F040041460BD
:1021000003E0146824F0400414600C7A012C04D11C
:10211000146844F02004146003E0146824F02004E0
:1021200014604C7A012C04D1146844F0100414603B
:1021300003E0146824F0100414608C7A012C04D19C
:10214000146844F00804146003E0146824F00804E0
:102150001460CC7A012C04D1146844F00404146097
:1021600003E0146824F0040414608C78A407CD788C
:1021700044EA05640D7944EA05444D7944EA05547E
:102180000D886D1E2C43D461146824F00104146082
:10219000002300E05B1C546804F001041CB14FF6FE
:1021A000FF74A342F6D1546804F001040CB100207E
:1021B00000E0012030BD10B50021837A012202FA2F
:1021C00003F1AC4A126842F00102AA4B1A60A94A14
:1021D0001C3212688A43A74B1C331A60027BCAB9AF
:1021E000A44A0C3212688A43A24B0C331A6042880C
:1021F000C38842EA03439F4A4032847A42F834302B
:102200000288838842EA03439A4A4032847A02EB86
:10221000C4025360027B012A19D1964A0C3212681B
:102220000A43944B0C331A604288038842EA034302
:10223000904A4032847A42F83430C288838842EA35
:1022400003438C4A4032847A02EBC4025360C27A60
:102250003AB9884A121D12688A43864B1B1D1A60C0
:1022600006E0844A121D12680A43824B1B1D1A6045
:10227000028932B97F4A143212688A437D4B143383
:102280001A600289012A06D17A4A143212680A4376
:10229000784B14331A60427B012A06D1754A1C32EE
:1022A00012680A43734B1C331A60724A126822F098
:1022B0000102704B1A6010BD00218171C171017261
:1022C00041728172C1728170C1700321017102215A
:1022D00041710121018070476649096841F001019F
:1022E000644A11601146096843F60E729143614ACF
:1022F00011601146096841EA002111601146096820
:1023000021F001011160704721B1026842F480326E
:10231000026003E0026822F4803202607047E1B19B
:10232000026842F0800202604FF4C272125842F416
:1023300080734FF4C27213504FF4CA72125842F4B1
:1023400080734FF4CA7213504FF4D272125842F491
:1023500080734FF4D27213501BE0026822F08002A7
:1023600002604FF4C272125822F480734FF4C272AA
:1023700013504FF4CA72125822F480734FF4CA7289
:1023800013504FF4D272125822F480734FF4D27269
:102390001350704710B502460020936803F0806325
:1023A000B3F1806F00D110E0936803F00063B3F1E4
:1023B000006F01D1012008E0936803F08053B3F16E
:1023C000805F01D1022000E00420042879D002F5CA
:1023D000C07303EB00131B6803F0010402F5C07324
:1023E00003EB00131C600B7A7BB94B7A0C8843EA31
:1023F000445302F5C07404EB00142468234302F52F
:10240000C07404EB0014236010E00B7A4C6843EABC
:10241000C4034C7A234302F5C07404EB001424680F
:10242000234302F5C07404EB001423608B7A03F09D
:102430000F038B7202F5C07303EB00135B6823F08C
:102440000F0402F5C07303EB00135C6002F5C07368
:1024500003EB00135B688C7A234302F5C07404EB32
:10246000001463608B7B1C064B7B44EA034403E04F
:1024700000640040006600400B7B44EA0323CC7AF2
:10248000234302F5C07404EB0014A3608B7C1C068C
:102490004B7C44EA03440B7C44EA0323CC7B234378
:1024A00002F5C07404EB0014E36002F5C07303EBA3
:1024B00000131B6843F0010402F5C07303EB001323
:1024C0001C6010BD10B50246002321B1012907D0C0
:1024D00002290FD109E09068F94C00EA04030BE0EF
:1024E0009068F84C00EA040306E09068F64C00EAB5
:1024F000040301E0002300BF00BFF44C181BA342FB
:1025000016D007DC83B16FF08060184470B10228E8
:1025100018D111E0B0F5007F10D0ED4C204448B147
:10252000B0F5003F0ED10BE002230DE000230BE0DD
:10253000002309E0002307E0012305E0012303E075
:10254000012301E0002300BF00BFD8B210BD21B1BC
:10255000012907D002290FD109E0826842F08002E8
:1025600082600AE0826842F40042826005E082688C
:1025700042F40002826000E000BF00BF704710B567
:1025800000F5D87303EB01131B6803F00403137207
:10259000137A53B900F5D87303EB01131B6840F2AB
:1025A000FF7404EA5353136009E000F5D87303EB9A
:1025B00001131B686FF0604404EAD303536000F515
:1025C000D87303EB01131B6803F00203537200F589
:1025D000D87303EB01135B6803F00F03937200F5EC
:1025E000D87303EB01135B681B0AD37400F5D8732F
:1025F00003EB01139B68D37200F5D87303EB01134F
:102600009B681C0A147300F5D87303EB01139B68D5
:102610001C0C547300F5D87303EB01139B681B0E5D
:10262000937300F5D87303EB0113DB68D37300F5E4
:10263000D87303EB0113DB681C0A147400F5D8731C
:1026400003EB0113DB681C0C547400F5D87303EB27
:102650000113DB681B0E937421B9C36843F0200398
:10266000C36003E0036943F02003036110BD21B997
:10267000C26842F02002C26003E0026942F0200218
:10268000026170470246002019B9D36803F00300C5
:1026900006E0012903D1136903F0030000E00020E4
:1026A000704710B502460B4600204FF6FF71BBB9CC
:1026B000146824F0020444F00104146000E0491E90
:1026C000546804F00304012C01D00029F7D15468A8
:1026D00004F00304012C01D0002032E0012030E09E
:1026E000012B13D1146824F00304146000E0491E88
:1026F000546804F003040CB10029F8D1546804F0C4
:1027000003040CB100201CE001201AE0022B17D1B9
:10271000146824F0010444F00204146000E0491E2F
:10272000546804F00304022C01D00029F7D1546846
:1027300004F00304022C01D0002002E0012000E09C
:10274000002010BD014600200A6822F0010242F07C
:1027500002020A604A6802F00302022A00D1012044
:10276000704701464FF6FF7200200B6823F002030A
:102770000B6000E0521E4B6803F00203022B01D1F4
:10278000002AF7D14B6803F00203022B00D001208E
:102790007047014600208A6902F0700070470146C8
:1027A00000208A69100E7047014600208A69C2F332
:1027B000074070471AB143690B43436102E0436924
:1027C0008B434361704710B50246002001F470034B
:1027D00043B19369C1F3130423400BB101202DE0F1
:1027E00000202BE001F0807343B15368C1F3130460
:1027F00023400BB1012021E000201FE001F0006325
:1028000043B19368C1F3130423400BB1012015E0D9
:10281000002013E001F0007343B1D368C1F3130447
:1028200023400BB1012009E0002007E01369C1F348
:10283000130423400BB1012000E0002010BD002252
:10284000244B994202D10023836111E0C1F31302AA
:1028500001F000730BB1C2600AE001F080630BB1BC
:10286000026105E001F000630BB1826000E04260AC
:1028700070470246002002EA01030BB1012000E08C
:102880000020704770B504460D4600266069284058
:10289000002872D0B5F5807F69D01DDC082D42D0AC
:1028A00006DC012D2DD0022D31D0042D7FD134E056
:1028B000102D3ED0202D42D0402D78D145E0000093
:1028C00003000004000300080000031000010008DA
:1028D0000001FFF77000F030B5F5004F61D009DC62
:1028E000B5F5007F4AD0B5F5806F4DD0B5F5006FD6
:1028F0005DD150E0B5F5803F2DD0B5F5003F56D104
:102900002FE0A0685549FFF7B4FF064651E0E068A4
:102910000321FFF7AEFF06464BE0E0680821FFF712
:10292000A8FF064645E0E0681021FFF7A2FF064633
:102930003FE020690321FFF79CFF064639E020694C
:102940000821FFF796FF064633E020691021FFF7C4
:1029500090FF06462DE060680821FFF78AFF0646D3
:1029600027E060681021FFF784FF064621E0A06998
:102970000121FFF77EFF06461BE01BE0A069022154
:10298000FFF777FF064614E0A0690421FFF771FF07
:1029900006460EE00BE0A0697021FFF76AFF0646CD
:1029A00007E060680421FFF764FF064601E00026A7
:1029B00000BF00E00026304670BDB1F5007F3AD080
:1029C0000FDC202928D006DC01291CD004291DD0C9
:1029D000082940D11DE0402921D0B1F5807F3AD1AE
:1029E00026E0B1F5004F31D006DCB1F5806F25D07F
:1029F000B1F5006F2FD124E0B1F5803F12D0B1F5D1
:102A0000003F28D111E0154A826025E00822C2600B
:102A100022E01022C2601FE0082202611CE01022A6
:102A2000026119E00822426016E01022426013E0C1
:102A30000422426010E0042242600DE00422426061
:102A40000AE0002282610422426005E000228261E5
:102A50000422426000E000BF00BF70470101010096
:102A600001460020FE4A106800F03800084310605C
:102A70007047FB49096821F00801F94A11601146C5
:102A80000968014311607047F549096821F0100198
:102A9000F34A116011460968014311607047F1481B
:102AA000EF494860F04848607047EE48EC4948609C
:102AB000ED4848607047EA48006940F08000E84906
:102AC00008617047E648006940F08000E449086109
:102AD00070470420E249C96801F0010109B10120F1
:102AE0000EE0DF49C96801F0040109B1022007E0E6
:102AF000DB49C96801F0100109B1032000E004209E
:102B0000704700B502460423FFF7E3FF034603E0E6
:102B1000FFF7DFFF0346521E012B01D1002AF7D138
:102B200002B90523184600BD30B5044604254FF40C
:102B30003020FFF7E6FF0546042D17D1C84800698D
:102B400040F00200C649086108464461006940F04F
:102B5000400008614FF43020FFF7D3FF0546C0481E
:102B6000006941F6FD710840BD490861284630BD45
:102B700010B504244FF43020FFF7C3FF0446042CA3
:102B800016D1B748006940F00400B549086108460D
:102B9000006940F0400008614FF43020FFF7B1FFBA
:102BA0000446AF48006941F6FB710840AC49086132
:102BB000204610BD00B502460423FFF78AFF0346F6
:102BC00003E0FFF786FF0346521E012B01D1002AC6
:102BD000F7D102B90523184600BD10B504244FF4FF
:102BE0003020FFF7E7FF0446042C16D19C4800690B
:102BF00040F004009A4908610846006940F040002E
:102C000008614FF43020FFF7D5FF0446944800696F
:102C100041F6FB71084092490861204610BD002032
:102C20008F49C96901F0020109B1012000E00020CB
:102C3000704730B5A5250424FFF7F1FF00B100254A
:102C40004FF43020FFF75DFF0446042C3AD185484D
:102C500083498860844888600846006940F0200005
:102C600008610846006940F0400008614FF43020D8
:102C7000FFF747FF0446042C1BD17948006941F651
:102C8000DF710840764908610846006940F010008D
:102C9000086176480580E002FFF733FF0446052C03
:102CA00010D06F48006941F6EF7108406C49086127
:102CB00008E0052C06D06A48006941F6EF7108402B
:102CC00067490861204630BD78B506460C460425A4
:102CD00000200090E802FFF714FF0546042D24D1E0
:102CE0005F48006940F001005D4908613480E802F6
:102CF000FFF707FF0546042D10D1B01C0090200CF3
:102D000000990880E802FFF7FCFE05465448006978
:102D100041F6FE7108405249086106E050480069DA
:102D200041F6FE7108404E490861284678BD70B5ED
:102D300004460D460426F002FFF7E3FE0646042E85
:102D400011D14748006940F00100454908612580DC
:102D5000F002FFF7D6FE06464148006941F6FE71D3
:102D600008403F490861304670BD70B505460E46C3
:102D70000424E002FFF7C5FE0446042C17D13948AD
:102D800037498860384888600846006940F010007C
:102D900008612E80E002FFF7B4FE0446052C06D041
:102DA0002F48006941F6EF7108402D49086120461F
:102DB00070BD2DE9F04304464FF6FF763746B04626
:102DC000B1460425E443E6B2C4F30727C4F3074839
:102DD0004FEA1469E802FFF794FE0546042D49D135
:102DE00020481F498860204888600846006940F0F4
:102DF00010000861FF2E06D01C4808300680E8024B
:102E0000FFF77FFE0546042D08D1FF2F06D0174897
:102E10000A300780E802FFF774FE0546042D0AD148
:102E2000B8F1FF0F07D011480C30A0F80080E8027D
:102E3000FFF767FE0546042D0AD1B9F1FF0F07D051
:102E40000A480E30A0F80090E802FFF75AFE054647
:102E5000052D0FD00248006941F6EF71084007E0E8
:102E60000020024023016745AB89EFCD00F8FF1F2A
:102E7000664908612846BDE8F08330B5054604245C
:102E80004FF43020FFF73DFE0446042C41D160484A
:102E90005E4988605F4888600846006940F020000D
:102EA00008610846006940F0400008614FF4302096
:102EB000FFF727FE0446042C22D15448006941F64E
:102EC000DF710840514908610846006940F0100070
:102ED00008611DB100205049088002E0A5204E493C
:102EE00008804FF43020FFF70CFE0446052C10D06C
:102EF0004648006941F6EF7108404449086108E01E
:102F0000052C06D04148006941F6DF7108403F4971
:102F10000861204630BDF0B505460E46174604242C
:102F20003B483A4988603B488860E002FFF7E9FD8A
:102F30000446042C19D13548006940F0100033498B
:102F4000086147F0F800304328433349891C088062
:102F5000E002FFF7D6FD0446052C06D02B48006999
:102F600041F6EF710840294908612046F0BD274825
:102F7000C069800870472548006A704700202349CF
:102F8000096801F0200109B1012000E0002070472C
:102F900029B11E4A126902431C4B1A6104E01B4A04
:102FA00012698243194B1A617047014600200129BA
:102FB00008D1164AD26902F001020AB1012008E0E4
:102FC000002006E0114AD2680A400AB1012000E060
:102FD000002070470D49C860704704200B49C9683C
:102FE00001F0010109B101200EE00849C96801F0B2
:102FF000040109B1022007E00449C96801F0100189
:1030000009B1032000E004207047000000200240C6
:1030100023016745AB89EFCD00F8FF1F0E4908601B
:1030200070470D49486070470B49886070474AF601
:10303000AA200949086070474CF6CC400649086050
:10304000704701460020044AD2680A400AB10120B4
:1030500000E00020704700000030004010B56FF025
:103060000400FDF710FF2E4800682E49B0FBF1F078
:103070002D4908700846007800EB4001C1EBC010F4
:103080004FF6FF7101EAC0002849088010BD0146D3
:10309000254A12784A434FF0E0235A6100229A6190
:1030A0001A46126942F001021A6100BF4FF0E02295
:1030B000106900F001021AB100F48032002AF5D044
:1030C0004FF0E022126922F001024FF0E0231A6172
:1030D00000229A6170470146144A12884A434FF011
:1030E000E0235A6100229A611A46126942F00102F5
:1030F0001A6100BF4FF0E022106900F001021AB11E
:1031000000F48032002AF5D04FF0E022126922F05C
:1031100001024FF0E0231A6100229A61704700001B
:103120000400002000127A003E0000204000002031
:1031300008B54FF4A060FDF757FE25208DF800007C
:1031400003208DF801008DF8020001208DF80300A6
:103150006846FDF74EFE0E208DF8000002208DF827
:10316000010001208DF802008DF803006846FDF78C
:1031700040FE0B208DF8000001208DF8010000209A
:103180008DF8020001208DF803006846FDF731FE3E
:1031900008BD0000014600BF704700BFFE4A12880C
:1031A00002F04002002AF9D0C2B2FB4B1B1D1A806C
:1031B000704710B586B0044601210846FEF791F924
:1031C000012144F20400FEF799F94FF40070ADF8C4
:1031D000140003208DF8160018208DF8170005A99B
:1031E000EE48FDF7CFFE4FF48060ADF814000420E8
:1031F0008DF8170005A9E948FDF7C4FE01940020E9
:10320000ADF80800ADF80A00ADF80C00ADF81000FC
:103210000C20ADF80E0001A9DF48FEF716FA0022D7
:1032200040F22661DC48FEF7A8FA002240F2255160
:10323000D948FEF7A2FA012240F22441D648FEF70F
:103240009CFA01224021D448FEF7BCFA0121D24861
:10325000FEF787FA06B010BDD148007800287DD16E
:10326000CF4840781828FAD1CD4880781828F6D170
:10327000CB48407C0028F2D1C948C078182806D134
:10328000C7480079182802D10020C6490860C44800
:10329000C078982806D1C2480079182802D1C248BF
:1032A000C0490860BE48C078982807D1BC4800795A
:1032B000982803D14FF07C50BA490860B848C078CC
:1032C000982806D1B64800791E2802D1B748B549DA
:1032D0000860B348C078982806D1B14800799E2884
:1032E00002D1B348AF490860AD48C0781E2806D166
:1032F000AB480079182802D1AE48AA490860A8480E
:10330000C0781E2806D1A6480079982802D1AA487C
:10331000A4490860A248C0781E2807D1A0480079B7
:103320001E2803D14FF07E509E4908609C48C0780B
:103330001E2806D19A4800799E2802D19F489949B3
:1033400008609748C0789E2806D1954800791828CB
:1033500002D19B4893490860914800E020E0C07882
:103360009E2806D18E480079982802D195488D492B
:1033700008608B48C0789E2806D1894800791E28AD
:1033800002D19148874908608548C0789E2807D1B6
:10339000834800799E2803D14FF07F50814908600F
:1033A0007F48007800BB7E48407818281CD17C48B4
:1033B0008078982818D17A48407CA8B97848C07895
:1033C000182806D176480079182802D17F48754917
:1033D00008607348C078182806D171480079982889
:1033E00002D17B486F4908606D480078B0B96C48DD
:1033F00040789E2812D16A4880789E280ED168486D
:10340000407C58B96648C0789E2807D16448007946
:103410009E2803D14FF080406249086060480078E0
:1034200000287DD15E48407B1828FAD15C48807B1B
:10343000182875D15A48407C002871D15848C07B63
:10344000182806D15648007C182802D1002055497A
:1034500048605348C07B982806D15148007C182802
:1034600002D151484F4948604D48C07B982807D148
:103470004B48007C982803D14FF07C504949486064
:103480004748C07B982806D14548007C1E2802D1B9
:103490004648444948604248C07B982806D1404885
:1034A000007C9E2802D142483E4948603C48C07B8F
:1034B0001E2806D13A48007C182802D13D483949D7
:1034C00048603748C07B1E2806D13548007C9828C4
:1034D00002D13948334948603148C07B1E2807D1A2
:1034E0002F48007C1E2803D14FF07E502D494860A4
:1034F0002B48C07B1E2806D12948007C9E2802D17B
:103500002E48284948602648C07B9E2806D124487A
:10351000007C182802D12A4822494860204800E04F
:1035200020E0C07B9E2806D11D48007C982802D14F
:1035300024481C4948601A48C07B9E2806D1184878
:10354000007C1E2802D12048164948601448C07BE0
:103550009E2807D11248007C9E2803D14FF07F504F
:10356000104948600E480078A0BB0D48407B1828E1
:103570003CD10B48807B982838D10948407C48BB17
:103580000748C07B182806D10548007C182802D1BE
:103590000E48044948601EE0003801400008014020
:1035A000600000204C000020CDCCCC3E9A99193F01
:1035B0003333333FCDCC4C3F6666663FCDCC8C3F3A
:1035C0009A99993F6666A63F3333B33FCDCCCC3F43
:1035D0009A99D93F0AE0FE48C07B182806D1FC48DA
:1035E000007C982802D1FB48FB494860F8480078E5
:1035F000B0B9F748407B9E2812D1F548807B9E28C1
:103600000ED1F348407C58B9F148C07B9E2807D1C1
:10361000EF48007C9E2803D14FF08040EE4948607F
:10362000EB48007800287DD1E948407A182879D104
:10363000E748807A182875D1E548407C002871D188
:10364000E348C07A182806D1E148007B182802D147
:103650000020E1498860DE48C07A982806D1DC481D
:10366000007B182802D1DD48DB498860D848C07A41
:10367000982807D1D648007B982803D14FF07C507A
:10368000D5498860D248C07A982806D1D048007BB6
:103690001E2802D1D248D0498860CD48C07A9828E7
:1036A00006D1CB48007B9E2802D1CE48CA4988600B
:1036B000C748C07A1E2806D1C548007B182802D109
:1036C000C948C5498860C248C07A1E2806D1C0488A
:1036D000007B982802D1C548BF498860BC48C07AA1
:1036E0001E2807D1BA48007B1E2803D14FF07E5018
:1036F000B9498860B648C07A1E2806D1B448007B14
:103700009E2802D1BA48B4498860B148C07A9E2840
:1037100006D1AF48007B182802D1B648AE49886070
:10372000AB4800E020E0C07A9E2806D1A848007B84
:10373000982802D1B048A8498860A548C07A9E2838
:1037400006D1A348007B1E2802D1AC48A24988605C
:103750009F48C07A9E2807D19D48007B9E2803D1B0
:103760004FF07F509C4988609948007800BB98488A
:10377000407A18281CD19648807A982818D1944805
:10378000407CA8B99248C07A182806D19048007B9E
:10379000182802D19A48904988608D48C07A182824
:1037A00006D18B48007B982802D18A488A498860D4
:1037B00087480078B0B98648407A9E2812D184485C
:1037C000807A9E280ED18248407C58B98048C07AC1
:1037D0009E2807D17E48007B9E2803D14FF0804071
:1037E0007D4988607A480078F0BB7948407918288C
:1037F0003AD177488079182836D17548407C98BBF3
:103800007348C079182806D17148007A182802D167
:1038100000207149C8606E48C079982806D16C486C
:10382000007A182802D16D486B49C8606848C07991
:10383000982807D16648007A982803D14FF07C5029
:103840006549C8606248C079982806D16048007A06
:103850001E2802D162486049C8605D48C079982836
:1038600008D15B48007A00E05EE09E2802D15D4806
:103870005949C8605648C0791E2806D15448007A74
:10388000182802D158485449C8605148C0791E28A8
:1038900006D14F48007A982802D154484E49C86052
:1038A0004B48C0791E2807D14948007A1E2803D109
:1038B0004FF07E504849C8604548C0791E2806D15F
:1038C0004348007A9E2802D149484349C86040488D
:1038D000C0799E2806D13E48007A182802D1454872
:1038E0003D49C8603A48C0799E2806D13848007AD8
:1038F000982802D140483849C8603548C0799E2888
:1039000006D13348007A1E2802D13C483249C860AB
:103910002F48C0799E2807D12D48007A9E2803D1D0
:103920004FF07F502C49C8602948007800BB2848D8
:10393000407918281CD126488079982818D1244825
:10394000407CA8B92248C079182806D12048007ABE
:10395000182802D12A482049C8601D48C079182873
:1039600006D11B48007A982802D11A481A49C86023
:1039700017480078B0B9164840799E2812D11448EB
:1039800080799E280ED11248407C58B91048C079E1
:103990009E2807D10E48007A9E2803D14FF0804020
:1039A0000D49C860704710B540F224411548FDF735
:1039B000C9FF68B300211448FEF7D5F81148008804
:1039C000124908800F48001D008808800E4820E03A
:1039D000600000209A99D93F4C000020CDCCCC3E0D
:1039E0009A99193F3333333FCDCC4C3F6666663FDF
:1039F000CDCC8C3F9A99993F6666A63F3333B33F4F
:103A0000CDCCCC3F00380140580002405C00002083
:103A10000FE0FEF7BFF8C0F1800006490880FFF70D
:103A20001BFC80200449C865012103485830FEF77B
:103A30009AF810BD5C0000200000024070477047FB
:103A4000704770477047754600F02CF8AE46050089
:103A50006946534620F00700854618B020B5FDF7AB
:103A6000B1F9BDE820404FF000064FF000074FF0DD
:103A700000084FF0000B21F00701AC46ACE8C0098C
:103A8000ACE8C009ACE8C009ACE8C0098D46704795
:103A900010B50446AFF300802046BDE81040FCF7A7
:103AA0006CBB0000004870472403002090EA010F1F
:103AB00048BF81F0004100F12482421A3CBF801AC5
:103AC00089184FEAD0524FF07F4C1CEA410FA2EB0D
:103AD000D15318BF9CEA026F00F03B804FF0004CBE
:103AE0004CEA00204CEA012121FA03FC10EB0C0CFB
:103AF0001ED202F1FF325FEA1C2040EBC25038BFF9
:103B000070471CF07F0F4FEA400C18BFBCF17F4F8D
:103B100038BF7047C3F12003994008BF20F001006F
:103B2000BCF17F4F38BF7047A0F1C04000F0DDB955
:103B30004FEA3C00000A40EBC25028BF1CF0FF0FC8
:103B40004FEA400CE6D018BFBCF17F4F38BF70473A
:103B5000EAE79CEA026F05D010EA5C0F08BF00F0AC
:103B60000040704710B500F07AF900BF64FBBE3E1C
:103B70004FF47F0C1CEAD0121EBF1CEAD11392EA4C
:103B80000C0F93EA0C0F00F0858090EA010F48BFFC
:103B900042F4807240F4000C41F400002CF07F41AC
:103BA00020F07F4000B58142A2EB03020FF2081C17
:103BB000ACEB504EC0F100009EF800E04FEA4E0E14
:103BC00000FB0EFC38BF49004FEA2C1C02F5FA023C
:103BD0000CFB0EF34FEACE1E4FEA112C4FEAC12127
:103BE0000EEB635E42EB22420EFB0CFC4FEA1C53D1
:103BF00000FB03114FEA112C4FEA01310EFB0CFCC4
:103C00004FEADC4C00FB0C11C14228BF09184CEBF9
:103C100003335DF804EB10EB410143EBC250B2F506
:103C20007C0F38BF704729D512F0F00F1CBF00F190
:103C3000C04000F000407047008182838485868701
:103C400088898B8C8D8E8F919293959697999A9C5B
:103C50009D9FA0A2A3A5A7A8AAACAEB0B2B3B5B7CA
:103C6000B9BCBEC0C2C5C7C9CCCED1D4D7D9DCDFA0
:103C7000E2E6E9ECF0F3F7FAFE0000004FEA400C50
:103C80000CF1807CBCF17E4F28BF7047B0F1C04082
:103C900000F02BB990EA010F0CEAD11348BF42F4AF
:103CA0008072624538BF634507D213F47F0F16D088
:103CB00080EA010000F00040704710B500F0CFF836
:103CC000097EFC3E00F005B880EA010000F00040EB
:103CD000704780EA010000F0004000F006B912F4DD
:103CE0007F0F04BF0248704780EA010000F0FDB872
:103CF0000000C07FC10DD1F19E0206DB4FEA002318
:103D000043F0004323FA02F07047004207D54FEA20
:103D10004001B1F1FE4F02D24FF00000704710B5E4
:103D200000F09DF849922480002070476FEA20003F
:103D300070470000B0FA80F310FA03F2C3F19D035C
:103D40000AD0D90501EB1220530638BF704700F1A5
:103D5000010008BF20F00100704700004FF47F0C05
:103D60001CEAD0121EBF1CEAD11392EA0C0F93EA90
:103D70000C0F00F0478090EA010F48BF42F48072B8
:103D80004FF0004C4CEA00204CEA012102EB030208
:103D9000A0FB0113A2F50002002918BF43F00103A4
:103DA0005B0028BF4FEA330342EB22425FEA132C49
:103DB0004CEBC2502EBFBCEB436FB2F57C0F70478B
:103DC0004FEA036CBCF1004F08BF20F00100B2F5D0
:103DD0007C0F38BF70470BD582F0FF0212F5803F91
:103DE000C8BF704700F1C040D8BF00F00040704726
:103DF00000F5000C5FEA4C0C48BF7047B0F1C040C2
:103E000000F073B890EA010F0CEAD11348BF42F4F6
:103E10008072624538BF634504D280EA010000F039
:103E20000040704710B500F01AF800BF8900013E4D
:103E300000F007B800F009B85FEA410C5FEA1C6CBB
:103E400008D080EA010000F050B85FEA400C5FEA59
:103E50001C6CF6D14FF00040A0F5800070470EF1C9
:103E6000020E2EF0030E5EF8044B244204D44FEAF7
:103E70004102B2F17F4F11D84FEA4003B3F17F4FB7
:103E80000CD80ED14FEAD07CB2F17F4F0CEB4C0C2A
:103E90000CF1020C08BF4CEBD17C04E04FF0080C95
:103EA00001E04FEAD17C0CEB4C0324FA03F404F05C
:103EB0000704B4F1040C06D20EEB840CBDE81040EC
:103EC0004CF0010C6047DFE80CF0070802024FF0ED
:103ED0000040A0F5800010BD0846420018BFD2F196
:103EE000807288BF00F0004010BDFF2141EAD05031
:103EF000C005704790EA010F48BF81F000413FF5CF
:103F0000DCAD421A04D882F00042A0EB020011445A
:103F10004FEAD0524FF07F4C1CEA410FA2EBD15335
:103F200018BF9CEA026F4AD04FF0004C4CEA0020C8
:103F30004CEA012121FA03FCB0EB0C0C0FD412F077
:103F4000FE0F36D05FEA4C001DD5001240EBC25088
:103F500038BF70471CF03F0F18BF70470BE0A2F14D
:103F600001025FEA1C2040EBC25038BF70471CF0D2
:103F70007F0F18BF7047C3F12003994014BF401E44
:103F800020F00100704780084FEA122308BF7047F5
:103F9000B0FA80FCA2EB0C02CCF1280C60FA0CF019
:103FA00093EA122F04BF00EBC25070474FEAC37070
:103FB0007047130A5FEADC1008BF7047F6E79CEA17
:103FC000026F04D010EA5C0F08BF0020704710B5E4
:103FD000FFF745FF40DFF63E81F0004070470000EC
:103FE00000400008000000206000000028010008D8
:103FF000604000086000002028090000440100081B
:104000000000000000A24A040000000000000000C0
:104010000102030406070809000000000000000078
:1040200038FF000800000000040000000001020347
:104030000401020304060708090204060800000040
:10404000000000000000000000000000000020410F
:10405000000020410000204100002041000000003D
:04000005080000ED02
:00000001FF
